:1000000002002E44657669636520446F6E65204961
:100010006E697469616C697A696E670D0A003C4E9D
:100020004F20464C4F41543E000000020124758190
:10003000361200B1E582600302009A780079007AF6
:10004000007B007C007D00EC4D601C88828983E48D
:1000500093A3A882A9838A828B83F0A3AA82AB830D
:100060001CBCFFE31D80E07582007583007C007D71
:1000700000EC4D600AE4F0A31CBCFFF51D80F27596
:1000800082007583007C007D00EC4D600AE4F0A3E3
:100090001CBCFFF51D80F212009F1201B580FEE42A
:1000A000F509F50A750B00750C00750D00750E004D
:1000B0002275A7007597DE7597AD75A71075C120DD
:1000C00075A70075A90075A900E5A930E7FB75A91A
:1000D0000375A903E5A930E7FB75E10075E200753A
:1000E000E340758200227598101200F943A4104372
:1000F000E10175E20075E34022858E8E758DE685FF
:100100008D8B53890F438920D28ED29922538EF73B
:1001100075C80075CA9075CBE875CEFF75CFFFD254
:10012000ADD2CA22C0E0C0D075D000C2CF740125C4
:1001300009F509E4350AF50A74E8B5092A7403B526
:100140000A25E4F509F50A050BB2A2743CB50B17B4
:10015000750B00050C743CB50C0D750C00050D7489
:1001600018B50D03750D00D0D0D0E03275F60475CA
:10017000A50375A607C2A0C2A1C2A2222090047541
:100180000E0022209104750E0222750E0122E4B5A4
:100190000E02800E7401B50E02800C7402B50E11B1
:1001A000800AC2A0C2A122D2A0C2A122D2A0D2A102
:1001B00022750E002212016C12010D1200E6D2AF60
:1001C0007403C0E07400C0E07480C0E01201F21556
:1001D000811581158112017C12018E80F80208338D
:1001E00085823085833185F032850F339001DD02C1
:1001F000029CC008858108E50824FBF533E5082446
:10020000FBF886300886310886329001DD12029CA8
:10021000D00822AA827424C0E07402C0E0C022C0C8
:10022000238A82220529E4B52902052A22AA82749A
:10023000302AFA24C6500A74072AFA30000343020F
:10024000208A82020213E582FAC4540FF582C002AA
:1002500012022DD002740F5AF58202022DAA24AB8D
:1002600025AC26AD27AE28752F20EE2EFEED2354AB
:1002700001FF4206EA2AFAEB33FBEC33FCED33FDD7
:10028000C3EE952B4008EEC3952BFE430201D52FFC
:10029000D98A248B258C268D278E2822858222853B
:1002A0008323E4F529F52AAA30AB31AC328A828B5C
:1002B000838CF0120848FD74012AF530E43BF531D7
:1002C0008C32EDFA700302082CBA25028003020872
:1002D00024C204C205C206C207C208C209C20AC2B9
:1002E0000BC201C202C203752B00752C00752DFFD5
:1002F000AB30AC31AD328B828C838DF0120848FA72
:10030000A3AB82AC838B308C318D32BA25078A82C5
:1003100012021380928A06BE3000402E8A06EE2416
:10032000C6402774FFB52D13E52C75F00AA4FEEA2C
:1003300024D02EF52C70BFD20580BBE52D75F00AB8
:10034000A4FEEA24D02EF52D80ACBA2E0A74FFB597
:100350002DA4752D00809F8A06BE6100400E8A067E
:10036000EE248540075302DFD2008002C200BA208B
:10037000028075BA23030203F7BA2A030203FCBA08
:100380002B02805FBA2D028055BA4202805FBA43C9
:1003900003020441BA440302057CBA4503020596F0
:1003A000BA4603020592BA470302059ABA49030204
:1003B000057CBA4C02803BBA4E0302059EBA4F033D
:1003C000020583BA5003020515BA5303020465BA45
:1003D0005503020588BA580302058D0205C8D204E8
:1003E0000202F6D2060202F6D2070202F6D2090291
:1003F00002F6D20A0202F6D20B0202F674FFB52D03
:100400002030090BE53314F88833862C0202F6E518
:100410003324FEF888338606088607188E2C0202DD
:10042000F630090BE53314F88833862D0202F6E521
:100430003324FEF888338606088607188E2D0202BC
:10044000F630090AE53314F888338602800FE53365
:1004500024FEF888338603088604188B028A8212E9
:1004600002130205CDE53324FDF8883386030886A0
:100470000408860518188B248C258D268B828C8386
:100480008DF012087DAB82AC838B2E74FFB52D03EB
:10049000852E2D20041DC3E52E952C5016E52CC36A
:1004A000952EF52CAB2C152CEB60087582201202D2
:1004B0001380F18524828525838526F0120848FB68
:1004C000FA6029AB2D152DC3E464808BF063F080B6
:1004D00095F050188A82120213AB24AC25AD260B7E
:1004E000BB00010C8B248C258D2680C720040302C1
:1004F00005CDC3E52E952C40030205CDE52CC39513
:100500002EF52CAB2C152CEB70030205CD7582203B
:1005100012021380EEE53324FDF888338603088643
:100520000408860518188B248C258D26E526FB30BB
:10053000E7047A438013EB546060047A50800AEB3E
:1005400030E6047A4980027A588A82C00212021385
:1005500075823A1202137582301202137582781274
:100560000213D002BA4902800BBA500280068525D8
:10057000821202468524821202468051D208752BCF
:100580000A804A752B088045752B0A8040752B1010
:10059000803BD2018037D2028033D203802FE533F3
:1005A00024FDF88833860308860408860518188B0E
:1005B000248C258D268B828C838DF0E5291208648E
:1005C000A3E52A12086480058A821202132001061C
:1005D00020020330035AE53324FCF88833860308ED
:1005E00086040886050886061818188B248C258D25
:1005F000268E2775241E7525007526808524348552
:10060000253585263674012534FEE43535FFAB36B5
:100610008E248F258B268534828535838536F0128E
:100620000848FBFA70030202A78A8212021380CCE8
:10063000E52B70030202A77B1630092BE53314F873
:100640008833E6FC3395E0FDFEFF8C248D258E2655
:100650008F2720085EAC247D007E007F008C248DD7
:10066000258E268F27804C300A1FE53324FCF8881E
:100670003386040886050886060886071818188C2D
:10068000248D258E268F27802AE53324FEF8883393
:10069000860408860518ED3395E0FEFF8C248D2531
:1006A0008E268F2720080CAC24AD257E007F008E7F
:1006B000268F27300B43E5244525452645276039FD
:1006C0007408B52B0C758230C003120213D003805E
:1006D000287410B52B23758230C003120213D00387
:1006E00030000C758278C003120213D003800A75A3
:1006F0008258C003120213D003300825AC24AD2564
:10070000AE26E527FF30E717C3E49CFCE49DFDE43B
:100710009EFEE49FFF8C248D258E268F278002C2AB
:1007200008752E00D20C8B00752800C00012025DE7
:10073000D000200C0DE528C4FCE6FD4CF61888031B
:100740008002A628052EB20CE5244525452645271E
:1007500070D68803E52C7003752C0120051A20043F
:1007600017E52E04FCC3952C500E758220C0031291
:100770000213D003152C80E930080E75822DC003BA
:10078000120213D003152C8024E52E602030060EB3
:1007900075822BC003120213D003152C800F300773
:1007A0000C758220C003120213D003152C20041EE6
:1007B000AC2C152CC3E52E9C50273005047C3080D2
:1007C000027C208C82C003120213D00380E2C3E5B6
:1007D0002E952C5009E52CC3952EF52C8003752CF5
:1007E000008B00AB2E152EEB6022B20C200C0A08F9
:1007F000E6C4540FFB8B2880078603740F5BF52833
:10080000852882C00012022DD00080D72004030268
:1008100002A7AB2C152CEB70030202A775822012E5
:10082000021380EE8A821202130202A785298285B2
:100830002A8322AA82BA0A0810990280FB75990DB0
:1008400010990280FB8A992220F71430F6148883CD
:10085000A88220F507E6A88375830022E280F7E4EA
:100860009322E02220F71030F6118883A88220F529
:1008700007F6A88375830022F280F7F022AA82ABE4
:1008800083ACF07D007E008A828B838CF012084856
:10089000FFA3AA82AB83EF60070DBD00EA0E80E7DD
:1008A0008D828E8322000000000000000000000006
:00000001FF
