:020000040800F2
:1000000000200020C1000008151300082913000873
:1000100000000000000000000000000000000000E0
:1000200000000000000000000000000015130008A0
:100030000000000000000000151300081513000860
:1000400015130008151300081513000815130008F0
:1000500015130008151300081513000815130008E0
:1000600015130008151300081513000815130008D0
:10007000151300081513000815130008890100085E
:100080004502000815130008151300081513000891
:1000900015130008151300081513000815130008A0
:1000A000151300081513000815130008250B000888
:1000B0001513000815130008151300081513000880
:1000C00001F0D2F801F096F8E1235B02180000F08D
:1000D00085FC62B600F074FAFEE7000080B500AF60
:1000E000204B180001F0F8FB72B69023DB051A686C
:1000F0009023DB058021C9010A431A601A4B1A6854
:10010000194BC02109020A431A60184B1A68174B91
:10011000802189020A431A60154B1A68144B012189
:100120000A431A60134B1A68124B802109020A43D2
:100130001A608023DB051A688023DB0511210A433E
:100140001A600D4B0D4A1A600D4B1A680C4B0121B9
:100150000A431A6062B60B4B180001F0BDFBC046A3
:10016000BD4680BD3C3A000808000048141002401B
:100170001C10024000E100E02C00004080BB0000A9
:100180000C0000404C3A000880B500AF0D4B1A68D7
:100190000C4B01218A431A600B4B1B685A1C0A4BFB
:1001A0001A60094B1A68FA239B009A4206D1064B43
:1001B00000221A6000F0E2F900F09AF9C046BD464C
:1001C00080BDC04610000040DC01002080B500AFBB
:1001D000154B180001F080FB72B6144B1A68134BD4
:1001E000802189020A431A60114B1A68104B0221C0
:1001F0000A431A600F4B1A680E4B802149020A43CA
:100200001A600D4B1A680C4B11210A431A600B4BF4
:10021000FA2252011A6062B6094B180001F05CFB29
:10022000C046BD4680BDC0465C3A0008141002407E
:100230001C10024000E100E0000400402C040040DB
:100240004C3A000880B500AF144B1A68134B0121DB
:100250008A431A60124B1B78DBB2322B06D1114B4A
:100260001A68104B40218A431A600DE00C4B1B7832
:10027000DBB2642B08D10B4B1A680A4B40210A43AE
:100280001A60074B00221A70054B1B78DBB2013352
:10029000DAB2034B1A70C046BD4680BD1004004060
:1002A000E10100201400004880B500AF9023DB0579
:1002B0001A689023DB0514490A431A60134B1A6825
:1002C000124BC02189010A431A60114B1A68104B66
:1002D0004F218A431A609023DB051A689023DB05BF
:1002E0000C490A401A600C4B1A680B4B0B490A4028
:1002F0001A60094B1A68084BA821C9040A431A60FE
:10030000C046BD4680BDC0465510000004000048F0
:1003100014000048FFFF3FF00C000048FFFF7FF58E
:1003200080B500AF0F4B1A6880231B01134012D118
:100330000D4B180001F0D0FAC0460A4B1A68802312
:100340001B011340F9D0094B01221A70084B180009
:1003500001F0C2FA02E0054B00221A70C046BD4609
:1003600080BDC046100000486C3A0008D80100204B
:10037000703A000880B582B000AFBB1D01221A7030
:10038000FB1D01221A70544B1A6880239B011340F5
:100390000AD1524B1B78002B02D1FB1D00221A7090
:1003A0004E4B00221A701AE04B4B1A6880235B01F7
:1003B00013400AD1494B1B78022B02D1FB1D0022AE
:1003C0001A70464B02221A7009E0444B1B78012B2D
:1003D00002D1FB1D00221A70404B01221A70BB1D76
:1003E0001B78012B36D13E4B1B78012B0AD0022BF8
:1003F00015D0002B20D13B4B1A683A4B03218A437E
:100400001A6028E0374B1A68364B03218A431A607A
:10041000344B1A68334B01210A431A601BE0314BFD
:100420001A68304B03218A431A602E4B1A682D4BF1
:1004300003210A431A600EE0294B00221A702A4B4E
:1004400001221A70294B1B7802221343DAB2274B80
:100450001A7000E0C046FB1D1B78012B36D11F4BE4
:100460001B78012B0AD0022B15D0002B20D11D4B5D
:100470001A681C4B0C218A431A6028E0194B1A6831
:10048000184B0C218A431A60164B1A68154B04212D
:100490000A431A601BE0134B1A68124B0C218A4363
:1004A0001A60104B1A680F4B0C210A431A600EE0B9
:1004B0000A4B00221A700C4B01221A700B4B1B784E
:1004C00004221343DAB2094B1A7000E0C046C0465A
:1004D000BD4602B080BDC04610000048E3010020C8
:1004E000E201002014000048D9010020DA010020B8
:1004F00080B500AF094B1B78DBB20133DAB2074B92
:100500001A70064B1B78DBB23C2B04D1034B002244
:100510001A7000F005F8C046BD4680BDE00100201D
:1005200080B500AF094B1B78DBB20133DAB2074B61
:100530001A70064B1B78DBB23C2B04D1034B002214
:100540001A7000F005F8C046BD4680BD00000020CE
:1005500080B500AF084B1B78DBB20133DAB2064B33
:100560001A70054B1B78DBB2182B02D1024B00220C
:100570001A70C046BD4680BD0100002080B500AFA6
:100580000D4B1B78DBB2002B09D10C4B1A680B4BBF
:1005900080210A431A60084B01221A7008E0074BB9
:1005A0001A68064B80218A431A60034B00221A7096
:1005B000C046BD4680BDC046020000201400004871
:1005C00080B584B000AF2D4B180001F085F9FFF71E
:1005D0006BFEFFF783FDFFF7F9FD294B00221A6040
:1005E000284B00221A6000F067FD274B00220121F2
:1005F000180000F0C1FDFFF793FE244B1B78012B80
:1006000008D1234B02221A70224B1A68214B012178
:100610008A431A601E4B1B78DBB2002B02D1FFF716
:10062000A9FEE8E71A4B1B78DBB2012B1BD11A4B52
:10063000180001F051F93B001021180000F078FB80
:10064000164B180001F0CEF83A00154B11001800B7
:1006500001F0C8F83B00180000F04CF83B0018000F
:1006600000F022F8C7E70A4B1B78DBB2022BC2D19D
:100670000C4B180001F030F9BDE7C046903A000875
:100680002400004024040040A03A0008D9010020C2
:10069000D80100200C040040A83A0008B83A00082D
:1006A000C03A0008C83A000880B584B000AF78604E
:1006B0000F217B1800221A707B1800221A700FE09D
:1006C0000F217B181B785BB27A68D31800221A704E
:1006D0007B181B785BB2DBB20133DAB27B181A707D
:1006E0000F23FB181B785BB20F2BE9DDC046BD461C
:1006F00004B080BD80B582B000AF78607B681B78A5
:10070000742B11D17B6801331B78692B0CD17B686A
:1007100002331B786D2B07D17B6803331B78652B65
:1007200002D100F017F80FE07B681B78732B07D11C
:100730007B6801331B78742B02D100F02FF803E0A3
:10074000034B180001F0C8F8C046BD4602B080BD9A
:10075000D03A000890B583B002AF0B4B1B78DBB2E8
:1007600019000A4B1B78DBB21A00094B1B78DBB26D
:100770001C00084B1B6808480093230001F032F866
:10078000C046BD4601B090BD010000200000002021
:10079000E0010020DC010020E43A000890B585B0BB
:1007A00000AF3F4B180001F097F808243B190521D2
:1007B000180000F0BDFA3B4B180001F013F83A198D
:1007C000394B1100180001F00DF83A1D37493B195B
:1007D000180001F0FFF87B68DAB2354B1A70344B21
:1007E0001B78DBB2172B02D9314B00221A702D4B2C
:1007F000180000F0F7FF2F4B180001F06DF80824E7
:100800003B190521180000F093FA264B180000F060
:10081000E9FF3A19244B1100180000F0E3FF3A1DDC
:1008200022493B19180001F0D5F87B68DAB2224B57
:100830001A70214B1B78DBB23B2B02D91E4B0022D6
:100840001A70184B180000F0CDFF1C4B180001F077
:1008500043F808243B190521180000F069FA114BF0
:10086000180000F0BFFF3A190F4B1100180000F0FC
:10087000B9FF3A1D0D493B19180001F0ABF87B6830
:10088000DAB20F4B1A700E4B1B78DBB23B2B02D93E
:100890000B4B00221A70C046BD4605B090BDC04645
:1008A000043B0008B83A0008C03A0008143B0008AE
:1008B00001000020183B000800000020283B000831
:1008C000E001002090B585B000AF78603960184B2A
:1008D0001B68002B02D101235B4224E00023FB6054
:1008E0000AE0FB685A1CFA603A68D418114B1800E9
:1008F00000F0B1F9030023707B68013B1A00FB682C
:10090000934205D20B4B180000F0CEF9031EE8D13C
:10091000FB68002B06D03A68FB68D31800221A70D7
:10092000FB6800E000231800BD4605B090BDC0463E
:1009300094020020FC01002080B584B000AF7860F4
:100940003960224B1B68002B02D101235B4238E047
:100950007B683F2B0BDCC0461D4B180000F0A4F950
:10096000020040239A1A7B689A42F5D302E00223E0
:100970005B4226E00023FB600BE03A68FB68D3187B
:100980001A78134B1100180000F036F9FB68013398
:10099000FB607B68FA689A42EFD30E4B1B68082213
:1009A00013400DD10B4B1A680A4B08210A431A60F9
:1009B000074B180000F04FF903001A00064B1A60AD
:1009C00000231800BD4604B080BDC046940200203C
:1009D00048020020003801402838014080B584B02A
:1009E00000AF786072B63F4B00229A643D4B9A6C20
:1009F0003C4B5A643B4B5A6C3A4B1A643A4B0022BC
:100A00009A64394B9A6C384B5A64374B5A6C364B54
:100A10001A64364B01221A60354B00221A60354B9E
:100A20001A68344B802189020A431A60324BFB60FA
:100A30007968F86800F0D6FD0300FB602F4B1A6858
:100A40002E4B8021C9020A431A602D4B1A682C4B89
:100A50002C490A401A609023DB051A689023DB05B5
:100A6000802109030A431A60274B1A68264B10217C
:100A70000A431A609023DB051A689023DB05802166
:100A800089030A431A60204B1A681F4B80214900D2
:100A90000A431A601D4B1A681C4B8021C9010A4386
:100AA0001A601B4B1A681A4B6C210A431A60194BC7
:100AB00000221A60184B00221A60184BFA681A605C
:100AC000134B1A68124B01210A431A60144B1A681F
:100AD000134B802109050A431A6062B6C046BD4621
:100AE00004B080BDFC0100204802002094020020D8
:100AF000F801002014100240006CDC0208000048DD
:100B000004000048FFFDFFFF2400004818100240C9
:100B10000038014004380140083801400C380140D9
:100B200000E100E080B500AF084B1B688022134055
:100B300001D000F025F8054B1B682022134001D09E
:100B400000F006F8C046BD4680BDC0461C380140D6
:100B500080B500AF074B1B68DAB2074B11001800D5
:100B600000F04AF8031E02D0044B01221A60C0466E
:100B7000BD4680BD24380140FC010020F801002062
:100B800080B500AF164B180000F08EF8031E08D099
:100B9000134B180000F05FF803001A00114B1A60A5
:100BA0001BE0114B1A68104B08218A431A600F4B47
:100BB0001B684022134005D00D4B1A680C4B402196
:100BC0000A431A60094B1B688022134005D0094B69
:100BD0001A68084B10210A431A60C046BD4680BD02
:100BE0004802002028380140003801401C380140EC
:100BF000203801401838014080B582B000AF7860DD
:100C00000A00FB1C1A707B681A6C7B685B6C9A424A
:100C100005D17B689B6C002B01D0012317E072B6D5
:100C20007B681B6C591C7A6811647A68F91C097816
:100C3000D1547B689B6C5A1C7B689A647B681B6CE4
:100C4000402B02D17B6800221A6462B60023180090
:100C5000BD4602B080BD80B584B000AF78607B68CF
:100C60009B6C002B01D100231AE072B67B685B6C91
:100C7000591C7A6851640F22BA187968CB5C1370DA
:100C80007B685B6C402B02D17B6800225A647B68D6
:100C90009B6C5A1E7B689A6462B60F23FB181B7804
:100CA0001800BD4604B080BD80B582B000AF78604A
:100CB0007B689B6C1800BD4602B080BD80B582B0D9
:100CC00000AF78600B4B1B68002B09D101235B42FE
:100CD0000BE07B685A1C7A6019000120FFF72CFE9C
:100CE0007B681B78002BF4D100231800BD4602B0AE
:100CF00080BDC0469402002080B582B000AF0200E3
:100D0000FB1D1A70FB1D19000120FFF715FEC046E0
:100D1000BD4602B080BD80B500AF044B1800FFF7A0
:100D20009AFF03001800BD4680BDC046FC010020AC
:100D3000B0B584B000AF78603960224B1B68002BDF
:100D400002D101235B4238E00023FB600B23FB1838
:100D500000221A701EE0C0461B4B1800FFF7A4FFCC
:100D6000031EF9D00B2425003C19174B1800FFF780
:100D700072FF030023702C003B191B781800FFF74B
:100D8000BBFFFB685A1CFA601A007B689B183A1973
:100D900012781A703B68013BFA689A4204DA0B2316
:100DA000FB181B780D2BD6D1FB68002B04DDFB68EC
:100DB0007A68D31800221A70FB681800BD4604B088
:100DC000B0BDC04694020020FC01002080B584B074
:100DD00000AF0200FB1D1A70284B1A68274B8021B8
:100DE00049020A431A60264B1A68254B04210A431C
:100DF0001A60244B30221A60234B1A68224B0121BF
:100E00008A431A60214B1A68204B01210A431A6059
:100E10001F4B1A681E4B802149030A431A60184B66
:100E20001A68174B01210A431A600F23FB1800228E
:100E30001A7011E0C046144B1B6801221340FAD00F
:100E4000114B1A68104B01218A431A600F217B183D
:100E50001A787B1801321A700F23FA18FB1D1278CA
:100E60001B789A42E6D3064B1A68054B01218A4348
:100E70001A60C046BD4604B080BDC046181002408E
:100E8000004001402C40014010400140144001400E
:100E900000E100E080B584B000AF78600023FB6023
:100EA0000EE0F920FFF792FFF920FFF78FFFF920FE
:100EB000FFF78CFFF920FFF789FFFB680133FB6028
:100EC000FA687B689A42ECD3C046BD4604B080BD48
:100ED00080B500AF084B1A68074B08210A431A6017
:100EE0002820FFF7D7FF044B1A68034B08218A43D9
:100EF0001A60C046BD4680BD1404004880B582B06B
:100F000000AF0200FB1D1A70FB1D1B78012213406D
:100F100006D04C4B1A684B4B80210A431A6005E0FF
:100F2000484B1A68474B80218A431A60FB1D1B7887
:100F30000122134006D0434B1A68424B40210A431A
:100F40001A6005E03F4B1A683E4B40218A431A6005
:100F5000FB1D1B780122134006D03A4B1A68394B0F
:100F600020210A431A6005E0364B1A68354B2021D0
:100F70008A431A60FB1D1B780122134006D0314BB7
:100F80001A68304B10210A431A6005E02D4B1A688D
:100F90002C4B10218A431A60FFF79AFF6420FFF759
:100FA00015FFFB1D1B780122134006D0254B1A6844
:100FB000244B80210A431A6005E0224B1A68214B1A
:100FC00080218A431A60FB1D1B780122134006D042
:100FD0001C4B1A681B4B40210A431A6005E0194B51
:100FE0001A68184B40218A431A60FB1D1B780122A6
:100FF000134006D0134B1A68124B20210A431A6083
:1010000005E0104B1A680F4B20218A431A60FB1D24
:101010001B780122134006D00A4B1A68094B102195
:101020000A431A6005E0074B1A68064B10218A43F1
:101030001A60FFF74DFF2820FFF7C8FEC046BD46E7
:1010400002B080BD1404004880B582B000AF020039
:10105000FB1D1A70094B1A68084B8021C9010A430D
:101060001A60FB1D1B781800FFF748FF0220FFF7EE
:1010700011FFC046BD4602B080BDC0461400004806
:1010800080B582B000AF0200FB1D1A70084B1A68D1
:10109000074B08490A401A60FB1D1B781800FFF730
:1010A0002DFF0520FFF7F6FEC046BD4602B080BD0D
:1010B00014000048FFBFFFFF80B500AF254B1800AC
:1010C00000F00AFC244B1A68234BC021C9020A43D2
:1010D0001A609023DB051A689023DB05A021C9055F
:1010E0000A431A609023DB051A689023DB051B492D
:1010F0000A401A601A4B1A68194B1A490A401A60BA
:10110000194B1A68184BF8210A431A60174B1A68D2
:10111000164BF8218A431A60154B1A68144B15496F
:101120000A401A601420FFF7B5FE3320FFF7A8FF2E
:101130003220FFF7A5FF2820FFF7A2FF0820FFF7C6
:101140009FFF0120FFF79CFF0C20FFF799FFC0468F
:10115000BD4680BD3C3B000814100240FFFFFF5F0E
:1011600004000048FFBFFFFF0004004814040048CB
:1011700014000048FF3FFFFF80B584B000AF7860E7
:1011800008001100FB1C021C1A70BB1C0A1C1A7000
:10119000FB1C1B78022B01D1C02300E08023180028
:1011A000FFF76EFF0520FFF775FE0023FB6009E0E7
:1011B000FB687A68D3181B781800FFF745FFFB68B7
:1011C0000133FB60FB687A68D3181B78002BEFD1E2
:1011D000BB1C1B78012B09D105E02020FFF734FF51
:1011E000FB680133FB60FB680F2BF6DDC046BD4694
:1011F00004B080BD80B582B000AF154B7B60154B4D
:101200003B6007E07A68131D7B603B68191D3960FD
:1012100012681A603A68104B9A42F3D304E03B68B4
:101220001A1D3A6000221A603A680C4B9A42F6D3B3
:101230000B4B3B6004E03B681A1D3A601B68984703
:101240003A68084B9A42F6D3C046BD4602B080BD0C
:10125000683D000800000020D8010020A002002006
:10126000683D0008683D000880B500AF244B1A684F
:10127000234B24490A401A60C046214B1A68802338
:101280009B041340F9D1204B1A681F4B01210A43DC
:101290001A601D4B1A681C4B06218A431A601A4BB0
:1012A0001A68194B10210A431A60184B1A68174B19
:1012B00017490A401A60154B1A68144BA02189037C
:1012C0000A431A60114B1A68104B8021C9010A4366
:1012D0001A600B4B1A680A4B802149040A431A60B2
:1012E000C046074B1A6880239B041340F9D0074B74
:1012F0001A68064B02210A431A60C046BD4680BDEB
:1013000000100240FFFFFFFE0020024004100240D8
:10131000FFFFC3FF80B500AF024B1800FFF7CEFC04
:10132000FEE7C046503B000880B500AF024B1800F6
:10133000FFF7C4FCFEE7C046783B000880B582B0EA
:1013400000AF7860FEE780B582B000AF786001231F
:101350005B421800BD4602B080BD80B584B000AFCE
:10136000F860B9607A60044B0C221A6001235B427A
:101370001800BD4604B080BD9C02002080B500AFBF
:10138000034B0B221A6001235B421800BD4680BD4F
:101390009C02002080B582B000AF786039603B6865
:1013A000802292015A6000231800BD4602B080BD21
:1013B00080B500AF01231800BD4680BD80B582B066
:1013C00000AF78603960044B16221A6001235B423B
:1013D0001800BD4602B080BD9C02002080B582B0DE
:1013E00000AF78603960044B1F221A6001235B4212
:1013F0001800BD4602B080BD9C02002080B584B0BC
:1014000000AFF860B9607A6000231800BD4604B0F0
:1014100080BD80B582B000AF786039603B688022C3
:1014200092015A6000231800BD4602B080BD80B50D
:1014300082B000AF786001235B421800BD4602B065
:1014400080BD80B582B000AF7860044B02221A6084
:1014500001235B421800BD4602B080BD9C02002003
:1014600080B582B000AF7860044B0A221A60012375
:101470005B421800BD4602B080BDC0469C02002001
:1014800080B582B000AF78607B680033022B01D852
:10149000012303E0034B09221A6000231800BD4614
:1014A00002B080BD9C02002080B586B000AF78609D
:1014B000144B7B61144B154A944663443B61144BB7
:1014C0001B68002B02D1124B7A691A60104B1B6803
:1014D000FB600F4B1A687B68D3183A699A4205D2B1
:1014E0000C4B0C221A6001235B4206E0084B1A6881
:1014F0007B68D218064B1A60FB681800BD4606B020
:1015000080BDC046A00200200020002000F0FFFFA8
:10151000E80100209C02002080B588B000AFF86090
:10152000B9607A600023BB61FB68002B22D10023E5
:10153000FB611AE0FFF7EFFB03001A0017217B188D
:101540001A70BB685A1CBA607A181278D2B21A7034
:10155000BB690133BB617B181B78DBB20A2B01D15D
:10156000BB690EE0FB690133FB61FA697B689A4253
:10157000E0DB05E0054B09221A6001235B4200E035
:10158000BB691800BD4608B080BDC0469C02002063
:1015900080B586B000AFF860B9607A60FB68013B47
:1015A000012B11D800237B6109E0BB685A1CBA608B
:1015B0001B781800FFF7A0FB7B6901337B617A6918
:1015C0007B689A42F1DB05E0054B09221A60012392
:1015D0005B4200E07B681800BD4606B080BDC04697
:1015E0009C02002003460B437FD4002243088B4219
:1015F00074D303098B425FD3030A8B4244D3030B9A
:101600008B4228D3030C8B420DD3FF22090212BA5E
:10161000030C8B4202D31212090265D0030B8B42DA
:1016200019D300E0090AC30B8B4201D3CB03C01AC4
:101630005241830B8B4201D38B03C01A5241430B9F
:101640008B4201D34B03C01A5241030B8B4201D38F
:101650000B03C01A5241C30A8B4201D3CB02C01AFA
:101660005241830A8B4201D38B02C01A5241430A72
:101670008B4201D34B02C01A5241030A8B4201D361
:101680000B02C01A5241CDD2C3098B4201D3CB0108
:10169000C01A524183098B4201D38B01C01A5241B7
:1016A00043098B4201D34B01C01A524103098B42BB
:1016B00001D30B01C01A5241C3088B4201D3CB00A6
:1016C000C01A524183088B4201D38B00C01A524189
:1016D00043088B4201D34B00C01A5241411A00D239
:1016E00001465241104670475DE0CA0F00D04942A2
:1016F000031000D34042534000229C4603098B4212
:101700002DD3030A8B4212D3FC22890112BA030A99
:101710008B420CD3890192118B4208D3890192111B
:101720008B4204D389013AD0921100E08909C309A0
:101730008B4201D3CB01C01A524183098B4201D3A2
:101740008B01C01A524143098B4201D34B01C01A8D
:10175000524103098B4201D30B01C01A5241C30805
:101760008B4201D3CB00C01A524183088B4201D374
:101770008B00C01A5241D9D243088B4201D34B008F
:10178000C01A5241411A00D20146634652415B10D1
:10179000104601D34042002B00D5494270476346B2
:1017A0005B1000D3404201B5002000F005F802BDF7
:1017B0000029F8D016E770477047C0460EB417B539
:1017C000041E04D08369002B01D100F0BBFB06ABE3
:1017D000059AA1682000019300F0C0FF1EBC08BC60
:1017E00003B018470FB40B4B13B51C68002C05D081
:1017F000A369002B02D1200000F0A4FB05AB049AE2
:10180000A1682000019300F0A9FF16BC08BC04B039
:101810001847C0460800002070B505000E000028DB
:1018200004D08369002B01D100F08CFBAB69AC685C
:10183000002B02D1280000F085FB244B9C420FD1E5
:101840006C68A3891B0702D52369002B1FD12100D7
:10185000280000F0D7F9002819D00120404270BDBF
:101860001B4B9C4201D1AC68EBE71A4B9C42E8D180
:10187000EC68E6E70136A360002B04DAA2699A421D
:1018800016DC0A2914D023685A1C22601970A36838
:101890003178013B0029EDD1A360002B0FDA220043
:1018A0000A31280000F03AF9431CD6D00A20D6E7C6
:1018B0002200280000F032F9431CE8D1CDE70A20CD
:1018C00023685A1C22601870C9E7C046BC3B000858
:1018D000DC3B00089C3B000810B5034B0100186876
:1018E000FFF79AFF10BDC0460800002070B50D003C
:1018F00009680400002901D0FFF7F8FF2900200043
:1019000000F074FC70BD0000314B70B51B68040022
:10191000834249D0436A002B0AD00025DB68AB42E2
:1019200047D1636A1968002902D0200000F05EFCEC
:101930006169002902D0200000F058FC616A00298A
:1019400002D0200000F052FCA16B002902D0200040
:1019500000F04CFCE16B002902D0200000F046FCB6
:10196000216C002902D0200000F040FCE16D00292C
:1019700002D0200000F03AFCA16D002902D0200026
:1019800000F034FC616B002902D0200000F02EFC36
:10199000A369002B08D02000A36A9847A16C0029F6
:1019A00002D02000FFF7A2FF70BD4959002908D1DD
:1019B0000435636AD968802DF7D1200000F016FC49
:1019C000AFE70E68200000F011FC3100EEE7C046E2
:1019D000080000200EB4812370B59DB002AC21AD8B
:1019E0009B0040CDA3810290069000F08FF80B4B36
:1019F000606063620023606109486363A364013B24
:101A0000E38132002B0021000068019500F0F2FC18
:101A10001DB070BC08BC03B01847C046991A000836
:101A2000080000200CB48123F0B59DB002AC22ADBB
:101A300006009B00080080CDA3810291069100F072
:101A400065F80A4B6060636200236363A364013B33
:101A50006061E3813A002B0021003000019500F025
:101A6000C9FC1DB0F0BC08BC02B01847991A0008A8
:101A700070B50C000E25495F01F070FA002803DBF9
:101A8000636D1B18636570BDA389024A1340A3816F
:101A9000F9E7C046FFEFFFFF00207047F8B51F00D1
:101AA0008B8905000C001600DB0505D50E23C95EE9
:101AB0000022022300F012FBA389054A28001340EC
:101AC000A38132000E23E15E3B0000F087F8F8BDF1
:101AD000FFEFFFFF70B50C000E25495F00F0FEFA26
:101AE000A389421C03D1054A1340A38170BD802203
:101AF00052011343A3816065F8E7C046FFEFFFFF83
:101B000010B50E23C95E00F0F3F810BD0023C25CCF
:101B10000133002AFBD1581E70470000F8B50500BC
:101B20000E001400002804D08369002B01D100F0BE
:101B300009FA224B9C422DD16C68A369A360A3894A
:101B40001B0731D52369002B2ED023682269F7B2F9
:101B5000981A6369F6B2834205DC2100280000F080
:101B600063F9002826D1A3680130013BA3602368F4
:101B70005A1C22601F706369834204D0A389DB076B
:101B80001AD50A2E18D12100280000F04DF900289E
:101B900012D00FE00A4B9C4201D1AC68CDE7094B53
:101BA0009C42CAD1EC68C8E72100280000F02AF85E
:101BB0000028CAD0012676423000F8BDBC3B0008A0
:101BC000DC3B00089C3B000810B5034B0A000100F9
:101BD0001868FFF7A3FF10BD0800002070B50500CE
:101BE000080011000022064C22601A00FFF7D0FC0A
:101BF000431C03D12368002B00D02B6070BDC0466E
:101C00009C020020364B70B51D6806000C00002DAC
:101C100005D0AB69002B02D1280000F093F9314BBD
:101C20009C420FD16C680C23E25E93B219072DD44D
:101C3000D90611D409230120336037331343A3811C
:101C4000404270BD284B9C4201D1AC68EBE7274B6A
:101C50009C42E8D1EC68E6E75B0713D5616B00298D
:101C600008D023004433994202D0300000F0BEFA7D
:101C7000002363632422A3899343A3810023636029
:101C8000236923600823A2891343A3812369002BBE
:101C90000BD1A0218022A389890092000B4093429E
:101CA00003D02100300000F055FA0123A28913402F
:101CB00011D00023A36063695B42A3610020236904
:101CC0008342BED10C23E25E1306BAD540231343F0
:101CD000A3810138B5E7920700D46369A360EDE7FB
:101CE00008000020BC3B0008DC3B00089C3B0008CF
:101CF000002370B5064C050008002360FFF723FBA6
:101D0000431C03D12368002B00D02B6070BDC0465C
:101D10009C020020F7B58A8905000C00130760D4E7
:101D20004B68002B04DC0B6C002B01DC0020FEBD9B
:101D3000E76A002FFAD000232E682B6080235B0116
:101D4000216A1A4034D0606DA3895B0706D56368A9
:101D5000C01A636B002B01D0236CC01A0200216AE9
:101D600000232800E76AB847A189431C06D12B68E5
:101D70001D2B30D82B4ADA40D3072CD500236360C3
:101D800023692360CB0405D5431C02D12B68002BAB
:101D900000D16065616B2E600029C7D023004433F9
:101DA000994202D0280000F021FA00206063BEE7CB
:101DB00001232800B847431CC6D12B68002BC3D091
:101DC0001D2B01D0162B01D12E60AFE74023A28935
:101DD0001343A381ABE740230B430120A38140427F
:101DE000A5E70F69002FA1D00B680F60DB1B0193E3
:101DF0000023920700D14B69A360019B002B00DCFC
:101E000094E7019B3A00216A2800A66AB04700289F
:101E100003DC4023A2891343DFE7019B3F181B1A11
:101E20000193EAE7010040200B6970B505000C0042
:101E3000002B01D1002070BD002804D08369002B45
:101E400001D100F07FF80B4B9C4209D16C680C2249
:101E5000A35E002BEED021002800FFF75BFFEAE72E
:101E6000054B9C4201D1AC68F1E7044B9C42EED19A
:101E7000EC68ECE7BC3B0008DC3B00089C3B00083E
:101E800010B5011E05D1054B0549186800F004F98D
:101E900010BD044B1868FFF7C7FFF9E7FC3B0008CB
:101EA000291E00080800002000207047002310B5FC
:101EB000040003604360836081814366C2810361E3
:101EC00043618361190008225C3000F087F9054BFB
:101ED00024626362044BA362044BE362044B2363FA
:101EE00010BDC046711A00089D1A0008D51A0008D6
:101EF000011B000810B5024900F0CEF810BDC04625
:101F0000291E00080020704770B568254A1E5543F9
:101F10000E002900743100F0B3F9041E08D000212E
:101F20002A00016046600C30A060683200F056F96B
:101F3000200070BD10B5024B1868FFF7DBFF10BD25
:101F4000FC3B0008836913B50400002B28D183648F
:101F5000C3640365134B144A1B6882620193984261
:101F600001D101238361200000F020F8606020008F
:101F700000F01CF8A060200000F018F80022E060DB
:101F800004216068FFF792FF01220921A068FFF792
:101F90008DFF02221221E068FFF788FF0123A36171
:101FA00013BDC046FC3B0008F51E0008F8B51C4BED
:101FB00007001E68B369002B02D13000FFF7C2FF93
:101FC0004836B4687368013B04D53368002B07D0EA
:101FD0003668F6E70C22A55E002D0DD06834F2E7D6
:101FE00004213800FFF790FF30600028F0D10C2367
:101FF00004003B602000F8BD20000A4B65662560A8
:102000006560A560E36025616561A561082229001E
:102010005C3000F0E3F86563A563A564E564E9E777
:10202000FC3B00080100FFFF704770477047704796
:1020300010B5034B0349186800F012F810BDC046F4
:1020400008000020A91E000810B5034B03491868BA
:1020500000F006F810BDC04608000020051F00086B
:10206000F7B54830040000260191002C01D1300062
:10207000FEBDA5686768013F01D52468F5E7AB8917
:10208000012B07D90E22AB5E013303D02800019B40
:10209000984706436835EEE7F7B5040007000026C9
:1020A00001914834002C01D13000FEBD6368A56861
:1020B0000093009B013B009301D52468F2E7AB89B4
:1020C000012B08D90E22AB5E013304D02900380061
:1020D000019B984706436835EBE7000070B50500A3
:1020E000080011000022064C22601A00FFF786F952
:1020F000431C03D12368002B00D02B6070BDC04669
:102100009C02002070B50E001D000E23C95E96B023
:102110001400002907DA00232B60B3891B0611D4B1
:102120008023DB000FE06A4601F08EF90028F2DB25
:10213000F022019B12021340054A9B185A42534158
:102140002B60EDE740230020236016B070BDC04631
:1021500000E0FFFFF7B502268B8905000C00334233
:1021600006D0230047332360236101236361F7BD59
:1021700001AB6A46FFF7C6FF00990700280000F090
:102180007FF8002808D10C22A35E9A05EFD4032221
:1021900093431E43A681E4E70F4BAB628023A289E1
:1021A00020601343A381009B20616361019B002B8E
:1021B0000DD00E23E15E280001F0B8FA002806D009
:1021C0000322A38993431A0001231343A381A08907
:1021D0003843A081CBE7C046F51E00080300121863
:1021E000934200D1704719700133F9E770B50500CB
:1021F000002910D00C1F2368002B00DAE4182800F7
:1022000001F03BFB1D4A1368002B05D1636014608D
:10221000280001F033FB70BDA34209D92168601882
:102220008342F3D118685B6841182160EEE7130020
:102230005A68002A01D0A242F9D919685818A04258
:102240000BD120680918581819608242E0D1106833
:102250005268411819605A60DAE7A04202D90C238B
:102260002B60D5E721686018824203D1106852685C
:102270004118216062605C60CAE7C046EC01002042
:10228000032370B5CD1C9D43083506000C2D1ED2CE
:102290000C25A9421DD8300001F0EFFA254A146838
:1022A0002100002919D1244C2368002B03D13000D0
:1022B00000F068FE20602900300000F063FE431C3F
:1022C0002BD10C233000336001F0D8FA03E0002D4D
:1022D000DFDA0C233360002070BD0B685B1B19D460
:1022E0000B2B03D90B60CC18256003E04B688C42A4
:1022F0000DD11360300001F0C1FA200007220B302D
:10230000231D9043C31AE7D05A42E250E4E76360CA
:102310000C00EFE70C004968C3E70323C41C9C438F
:10232000A042E1D0211A300000F02CFE431CDBD18A
:10233000C7E7C046EC010020F001002070B5140092
:102340004B1C03D101256D42280070BD93892022CA
:102350009343626BA381CEB2CDB26368002A10D0E2
:10236000A26B9A4207DD2368013B23601E706368FD
:1023700001336360E8E7210000F0ACFF0028F2D0F1
:10238000E0E721692268002907D0914205D2511E59
:102390000878A84201D12160EAE72364230044338E
:1023A00063630323A36323004633E2631E70236049
:1023B0000123DEE710B50C00496B00290ED0230085
:1023C0004433994201D0FFF711FF0020236C606372
:1023D0006360834202D0E36B236010BD2369012058
:1023E00023600023A289636020331343A38140420A
:1023F000F3E70000F0B5B94CC025A54405930023D0
:102400000C004A934B93862107AB4C93BE2301905B
:10241000170004A8B24A490040185B00C250B14AF4
:102420006D0042513B78002B00D154E101F0C2F91C
:1024300008223B787E1CC01802934378134023D0B7
:102440006368002B14DD01F0B5F9082123681A78C0
:10245000801842780A4201D13700E3E74B9A0133F2
:10246000029201324B9262682360013A6260E7E7B0
:10247000862204AB52009B185B59210001980293FD
:1024800098470028DFD0E7E7029A252A6DD14993C3
:1024900047937B782A2B02D11A3B4793BE1C370007
:1024A0000A2239787B1C03930B00303B092B24D97B
:1024B0008D4E0322300001F0B9F9002807D0012326
:1024C000801B8340479A039F1343049247933B78B2
:1024D0007E1C672B35D8652B00D3BBE0472B14D867
:1024E000452B00D3B6E0002B00D1F1E0252B3CD0EA
:1024F00003234D930733489369E0499B039F04935B
:102500005343303B59184991CBE75B2B00D17DE019
:1025100010D8582BECD1479A02928022029992004F
:102520000A434792102248926E229A429B415B4294
:1025300003334BE0632B00D175E0642BD8D10A2222
:10254000F1E7702B38D008D86E2B00D173E03AD861
:10255000692BCDD100234893EAE7752BEFD0782B78
:10256000D9D0732BC4D1022330E06368002B0FDD78
:10257000236802991A788A4200D0ACE0013362687D
:1025800023604B9B013A0293013362604B9363E7F4
:10259000862204AB52009B185B59210001980393DB
:1025A00098470028E4D04A98002800D08CE00138F1
:1025B000A9239B009D44F0BD479A029220220299D4
:1025C0000A434792A7E708234893043B4D93636867
:1025D000002B41DD479B02935B0608D401F0EAF82B
:1025E000082123681A78801842780A4240D14D9B0E
:1025F000022B55DC05AB220047A9019800F046FBF1
:10260000012868D0022800D026E7CCE7310007A8CF
:1026100000F0CAFC479B060002934023029A134332
:1026200047930123D2E7479B02934023029A134327
:1026300047930023CAE74798C30600D50CE7059BDC
:102640004B9A191D05911B68C70701D51A8003E72E
:102650001A6001E70523B9E7862204AB52009B18F4
:102660005B5921000198029398470028B2D09AE75D
:102670004B9A029201324B926268013A6260002AE0
:1026800002DD01332360A9E7862204AB52009B18C8
:102690005B59210001980293984700289ED082E759
:1026A000042B06DC05AB220047A9019800F054FB7F
:1026B000A6E70E4B002B00D1CEE605AB220047A9C2
:1026C000019800E000BF9BE7A3895B0600D46FE799
:1026D000012040426CE74A986AE7C0465CFDFFFF74
:1026E0003D230008B5230008003C0008000000005E
:1026F000936810B5013B9360002B04DA9469A34200
:1027000007DB0A2905D01368581C106019700800EF
:1027100010BDFFF703FA0100F9E7F8B506000F0056
:102720001400D518AC4201D1002007E021783A000E
:102730003000FFF7DDFF0134431CF3D1F8BD93688F
:1027400010B51400002B02D11800536010BD00F02A
:102750008DFE0023A3606360F8E70000F0B59FB032
:1027600002900F0016000593002805D0836904939A
:10277000002B01D1FFF7E6FB7B4B9F425BD1029B15
:102780005F68BB891B0762D53B69002B5FD00023C4
:1027900006AC6361203363761033A37635002B7863
:1027A000002B01D0252B5CD1AB1B04930CD0320045
:1027B00039000298FFF7B1FF431C00D1C4E0626901
:1027C000049B9446634463612B78002B00D1BBE0EB
:1027D000012200235242626002A9543252186E1C38
:1027E0002360E360A3601370A365317805225F481E
:1027F00001F01CF8751C002835D12268D30604D5D9
:10280000532302A95B1820211970130704D5532301
:1028100002A95B182B21197033782A2B2CD0350094
:1028200000210A20E3682A786E1C303A092A64D90C
:1028300000292ED026E04E4B9F4202D1029B9F687A
:102840009FE74C4B9F429CD1029BDF6899E7390080
:102850000298FFF7D7F9002899D0012040421FB015
:10286000F0BD01359BE7414B2268C01A012383402C
:10287000134323602E00B8E7059B191D1B680591C3
:10288000002B01DB099304E05B42E3600223134366
:1028900023602B782E2B0AD16B782A2B35D1059B00
:1028A00002351A1D1B680592002B2BDB0793324E55
:1028B00029780322300000F0B9FF002806D0402319
:1028C000801B834022680135134323602978062248
:1028D0002A486E1C217600F0A9FF00283AD0284B28
:1028E000002B25D10722059B07339343083305931B
:1028F0006369039A9B18636150E7434301219B1866
:10290000350090E701235B42D0E700230A201A003C
:102910000135636029786E1C3039092903D9002BF1
:10292000C5D00792C3E74243012352183500F1E7AF
:1029300005AB00933A00134B2100029800E000BF62
:102940000390039B0133D3D1BB895B0600D584E799
:102950000B9884E705AB00933A000A4B21000298DC
:1029600000F08CF8ECE7C046BC3B0008043C0008D3
:10297000DC3B00089C3B0008003C00080A3C0008C7
:10298000000000001B27000810B513000A0001001A
:1029900002480068FFF7E2FE10BDC04608000020B4
:1029A000F7B5150001938A680B6900900C009342FB
:1029B00000DA130022002B6043321278002A01D083
:1029C00001332B6023689B0602D52B6802332B60F2
:1029D000062723681F4027D0230043331B785A1E45
:1029E00093412268920630D4220001994332009824
:1029F000089EB047431C25D0062320682A68E1685A
:102A000003400025042B03D18D1AEB43DB171D4037
:102A1000A3682269934201DD9B1AED180027BD428D
:102A200020D1002010E00137E3682A689B1ABB42DE
:102A3000D2DD22000123193201990098089EB04787
:102A4000431CF0D101204042FEBD3020E11843314B
:102A5000087021005A1C45310978A218433202330C
:102A60001170C1E7220001231A3201990098089ED3
:102A7000B047431CE6D00137D1E70000F0B589B07C
:102A800004920A0043320593039002920A7E0C00DE
:102A90000E9B6E2A00D186E01FD8632A33D008D857
:102AA000002A00D18CE0582A4DD0250042352A70EA
:102AB00030E0642A01D0692AF7D1196825680A1D17
:102AC000280629D508681A60002803DA2D23029AFF
:102AD000404213706B4E0A274FE0732A74D008D817
:102AE0006F2A1FD0702AE0D1202209680A43226091
:102AF00003E0752A16D0782AD7D1220078214532F2
:102B00001170614E22E025001A684235111D1960CE
:102B100013682B70012365E008681A606906D3D535
:102B200000B2D1E719682568081D186008682E06EC
:102B300005D5544E08276F2A1BD00A2719E06D06C9
:102B4000F7D580B2F5E745314E4E0A701868226815
:102B5000011D00681960150621D5D30702D5202371
:102B60001A4322601027002803D1202322689A43A9
:102B700022602300002243331A706368A360002B95
:102B800058DB0422216891432160002854D1029D22
:102B9000002B5AD02500337842352B7055E055066E
:102BA000DBD580B2D9E71A680D68101D4969186035
:102BB00013682E0601D5196002E06D06FBD5198059
:102BC0000023029D23614FE01A68111D19601568EA
:102BD00000216268280000F029FE002801D0401B77
:102BE0006060636823610023029A13703CE02369EC
:102BF0002A0004990398059DA847431C3ED02368EA
:102C00009B0715D4079BE068984239DA180037E033
:102C100022000123193204990398059EB047431CF2
:102C20002CD00135E368079A9B1AAB42F0DCE9E748
:102C30000025F7E70028ADD0029D390000F0FAFE2C
:102C4000735C013D2B700028F7D1082F09D1236850
:102C5000DB0706D563682269934202DC3023013D1D
:102C60002B70029B5B1B2361059B07AA009321002D
:102C7000049B0398FFF794FE431CB8D10120404207
:102C800009B0F0BD113C0008223C0008F7B5150062
:102C90008A6801900C00002A04D18A69002A17D1A1
:102CA0000132A2602268D20603D41A68111D19608D
:102CB00017680026A369002B1FD0012B0BD12B68AE
:102CC00062691B78D35C002B17D1002E33D109E049
:102CD00001225242E5E7022B06D0002E2BD1A36938
:102CE000012B28D10120FEBD00F064FD08222B68D5
:102CF0001B78C01843781342EFD1102223680136A5
:102D0000134203D12B681B783B7001372A686B682C
:102D100001322A60A268013B013A6B60A260002A7E
:102D200009D0002BC6DCC0235B00E35829000198C2
:102D300098470028BED010232268134006D1E268CD
:102D40000132E260A269002A00D03B7023690020B2
:102D50009E192661C7E70000F0B50C008BB0029306
:102D6000784B0490160007AA23CB23C2764B059319
:102D7000A369032B01D1754B0593AE220020A368F4
:102D80005200591E0390914205D95E3BFF3B0393CD
:102D90005E23FF33A36023001C330193D02300275D
:102DA00022681B0113432360019B0093336807A82B
:102DB0001978BB000222185800F038FD00282BD0EB
:102DC000012F62D16368002B06D10833226863604B
:102DD000F933FF33134323605D4B226813402360B4
:102DE000A3685A1EA260002B16D033685A1C3260AA
:102DF0001B78009A13707368551C013B7360002B9D
:102E000009DCC0235B00E358310004980093984725
:102E1000002800D080E000950137032FC6D16368F9
:102E2000002B01D10A3363601021002763686069B9
:102E3000C91A484BC91800F0B7F8009DA36822686A
:102E40000093002B41D03168636908781B5C002B2C
:102E50003BD0302829D180231B011A4225D0039B67
:102E60000137002B05D01A00009B013A0133039271
:102E7000A3607368013B7360002B1DDD3368013371
:102E80003360A368013BA360D8E7022FA8D1C0211B
:102E900080232268C90011409B009942BFD1F13BB9
:102EA000FF3B6360F033134399E72B4B13402360E0
:102EB0000B782B700135DCE7C0235B00E358310051
:102EC0000498009398470028DBD02368DB050ED5D3
:102ED000019B9D4207D9BE23013D5B002978E35841
:102EE000320004989847019B01209D4227D0102270
:102EF00023681A401CD12A70636801990498059EC2
:102F0000B047029B21681B688A0607D51A1D0299E3
:102F10000A601B68186008E00027D6E71A1DCE0774
:102F2000F5D502990A601B681880E3680133E360F5
:102F30000020019BED1A2369EF19DF1927610BB0FF
:102F4000F0BDC046343C0008753200080D31000861
:102F5000FFFAFFFF403C0008FFF6FFFF70B50500D9
:102F6000080011000022064C22601A00FEF7D4FA75
:102F7000431C03D12368002B00D02B6070BDC046DA
:102F80009C020020002370B5064C05000800236059
:102F9000FEF78AFA431C03D12368002B00D02B6074
:102FA00070BDC0469C02002070B50B7805005E2BFA
:102FB00018D04A1C002128006C1CFF34017001301D
:102FC000A042FBD1501E002B0BD001204140E95400
:102FD0001478501C2D2C0CD05D2C02D0002C05D167
:102FE000100070BD8A1C4B780121E4E72300020029
:102FF000EDE756785D2EF9D0B342F7DC02320133AB
:10300000E9549E42FBDCE3E7F0B51F000E0087B0F9
:103010000590019102920C98347800F0C7FB0822C9
:1030200000194378751C134036D12D2C36D1B51CB0
:1030300074780126002F62D0102F09D1302C07D1CF
:1030400020222B789343582B54D110276C780235CB
:103050002D4B3900F3181800039300F0EBFC04919A
:1030600001210023494202008C461800210030391A
:1030700009291AD80C00A74223DD591C09D0634640
:10308000824206D302D10499A14202DB0123784394
:1030900020182C780135E9E72E00BCE72B2C01D055
:1030A0001E00C7E7B51C7478FAE7210041391929D9
:1030B00001D8373CDFE721006139192901D8573C95
:1030C000D9E75A1C08D1059A23331360029B039851
:1030D000002B09D107B0F0BD002E00D04042029A6B
:1030E000002AF7D0002B01D06B1E0193029B019A9E
:1030F0001A60EFE73024002FAAD10827A8E7302C68
:103100009ED00A27A4E7C046FFFFFF7F13B5054CFA
:103110002468246A002C00D1034C0094FFF774FF4C
:1031200016BDC046080000206C00002007B50093C3
:1031300013000A00010002480068FFF765FF0EBD9A
:103140000800002037B51300064A05001068046A1D
:10315000002C00D1044C0A0000942900FFF754FF12
:103160003EBDC046080000206C000020F0B51F00E6
:103170000E0085B00390019102920A98347800F015
:1031800015FB082200194378751C134038D12D2CEB
:1031900038D17478B51C01330093002F65D0102FFF
:1031A00009D1302C07D120222B789343582B57D1AB
:1031B00010276C78023501203900404200F0B4FB42
:1031C000060001203900404200F034FC00230122B7
:1031D0008C461800524221003039092917D80C00BA
:1031E000A74222DD002B1EDB1300864205D301D14E
:1031F000A44502DB0123784320182C780135EAE747
:103200002E00BAE72B2CC7D1B51C7478C4E7210077
:103210004139192901D8373CE2E7210061391929E0
:1032200003D8573CDCE71300E7E7002B09DA222339
:103230000120039A40421360029B002B0AD105B083
:10324000F0BD009A002A00D04042029A002AF6D02F
:10325000002B01D06B1E0193029B019A1A60EEE7CE
:103260003024002FA7D10827A5E7302C9BD00A27B0
:10327000A1E7000013B5054C2468246A002C00D196
:10328000034C0094FFF772FF16BDC04608000020F3
:103290006C00002007B5009313000A0001000248EB
:1032A0000068FFF763FF0EBD0800002037B513006C
:1032B000064A05001068046A002C00D1044C0A007C
:1032C00000942900FFF752FF3EBDC04608000020D1
:1032D0006C0000200B00F7B54D6B44330C009D4291
:1032E0001CD18026F6003100FEF7CAFF002802D16B
:1032F00001204042FEBD23006063A66346331A7876
:10330000104BC254230045331A780F4BC2542A780D
:103310000E4BC254C01820600020EBE78E6B2900D2
:1033200073001A00019300F0AAFA051EE0D0871975
:1033300001003200380000F084FA019B27606563C9
:10334000A363E9E7FF030000FE030000FD030000A4
:10335000F8B505000E0014004B1C03D1012676427F
:103360003000F8BD002804D08369002B01D1FEF79E
:10337000E9FD2D4B9C422DD16C682022A3899343FB
:103380001BB2A3819BB25A0713D4DA06E6D50827ED
:103390003B420AD021002800FEF746FD0028DDD17F
:1033A000A389A060BB43A381A0610423A289134326
:1033B000A381626BF7B26368F6B2002A1BD0A26BDE
:1033C0009A4211DD2368013B23601F70636801335B
:1033D0006360C5E7154B9C4201D1AC68CDE7144B47
:1033E0009C42CAD1EC68C8E721002800FFF772FFB1
:1033F0000028E7D0B2E721692268002907D091426E
:1034000005D2511E0878B04201D12160DFE7236464
:103410002300443363630323A36323004633E2633F
:103420001F7023600123D3E7BC3B0008DC3B00088E
:103430009C3B000810B5034B0A0001001868FFF719
:1034400087FF10BD08000020002370B5064C050062
:10345000080011002360FDF79DFF431C03D1236882
:10346000002B00D02B6070BD9C020020F0B593684B
:1034700087B002900C0003920093002B02D1002031
:1034800007B0F0BD8B891B0753D50B69002B50D0BB
:103490000225039B1B680193A3891D406FD1012264
:1034A000134000D1A6E028002F0000950592002FC0
:1034B00000D111E100280AD13A000A21009800F059
:1034C000B5F97D1C002802D0009B0130C51A049577
:1034D000BD4200D90497206822696369904200D8F0
:1034E00003E1A2689E18049AB24200DCFDE0009954
:1034F000320000F0AFF9236821009B192360029885
:10350000FEF792FC002870D1AD1B059805D1210073
:103510000298FEF789FC002867D1009BBF1B9B190E
:103520000093039B9B689E1B0493039B9E60BED1EC
:10353000A5E721000298FEF765FB0028A8D001202E
:1035400040429DE7019B1E685D6808330193002D92
:10355000F8D0724A2B00954200D913003200216A3C
:103560000298A76AB84700283FDD039B36189B687E
:103570002D1A0093181A039B9860E8D17FE7002664
:103580003500E4E7019B1B680493019B5B68009393
:10359000019B08330193009B002BF3D08023A28969
:1035A0009B00A56820681A4264D0009B9D4235D8D4
:1035B0009023DB001A4231D00326636921695E4300
:1035C000471AF00F861900987B1C1B187610B3421F
:1035D00000D91E0053053ED531000298FEF750FE7B
:1035E000051E0AD10C23029A13604023A2891343BB
:1035F000A381A4E704930093CDE73A00216900F08A
:1036000020F9A389464A1A4080231343A3812561E8
:10361000ED1925606661009DF61BA660009FBD4206
:1036200000D93D002A000499206800F013F9A3682E
:103630005B1BA36023685D192560049BDB19049361
:10364000009BDB1B0093039B9B68DF1B0593039B85
:103650009F60A0D113E73200029800F010F9051E18
:10366000D5D121690298FEF7C1FD8022A389934339
:10367000A381B7E72369834203D36769009B9F4215
:1036800017D9009B9D4200D91D002A00049900F023
:10369000E1F8A36822685B1B52192F00A360226027
:1036A000002BCAD121000298FEF7BEFB0028C4D02F
:1036B0009BE7009A1B4B10009A4200D91A48390028
:1036C000FDF790FF3B00049A4343216A0298A56AE4
:1036D000A847071EB1DC88E7019B00201B68009308
:1036E000019B5F6808330193E1E6049A934208DC8A
:1036F000A66A009A216A0298B047061E00DD03E719
:1037000073E7049A009900F0A5F8049AA3681600DC
:103710009B1AA36023689B182360F5E600FCFF7FDB
:103720007FFBFFFFFEFFFF7FFFFFFF7F002370B5E2
:10373000064C050008002360FDF7A2FE431C03D1E0
:103740002368002B00D02B6070BDC0469C02002077
:1037500070B5141E0B4D12D00B49100000F0B5F8D7
:1037600000280CD02900200000F0AFF8002806D077
:103770000649200000F0A9F80023984200D12B0050
:10378000180070BD5B3C00085D3C0008093C000867
:10379000044B1B681B6A002B00D1034B9422520080
:1037A000985C7047080000206C000020EC30006836
:1037B00070470000044B1B681B6A002B00D1034BB1
:1037C000EC3318687047C046080000206C000020E9
:1037D00010B5034B0A0001001868FFF7B9FF10BDD0
:1037E0000800002037B5064C2468246A002C00D15C
:1037F000044C069DE43400952468A0473EBDC046B5
:10380000080000206C00002082B0002900D101A92E
:10381000101E06D0002B06D013780B601078431EC4
:10382000984102B0704702204042FAE7C9B28218BC
:10383000904201D10020704703788B42FBD00130C9
:10384000F6E7002310B59A4200D110BDCC5CC454F9
:103850000133F8E710B5884202D98B18984203D398
:10386000002307E08B5C8354013AFBD210BDCC5C93
:10387000C45401339A42FAD1F8E770477047F8B55B
:1038800007000D001600002905D11100FEF7F8FC15
:1038900004002000F8BD002A03D1FEF7A7FC340085
:1038A000F7E700F039F82C00B042F2D231003800CE
:1038B000FEF7E6FC041EECD029003200FFF7C1FF42
:1038C00029003800FEF792FCE3E702780B78002A23
:1038D00003D0013001319A42F7D0D01A704700006E
:1038E00010B5054C2468246A002C00D1034CE03448
:1038F0002468A04710BDC046080000206C000020CE
:103900000B1E04D0FF2A04D98A2303608B3B1800C6
:1039100070470A700123FAE70B1F1B68181F002B62
:1039200001DA0B58C0187047002243088B4274D349
:1039300003098B425FD3030A8B4244D3030B8B42B0
:1039400028D3030C8B420DD3FF22090212BA030CB9
:103950008B4202D31212090265D0030B8B4219D39A
:1039600000E0090AC30B8B4201D3CB03C01A5241BA
:10397000830B8B4201D38B03C01A5241430B8B4202
:1039800001D34B03C01A5241030B8B4201D30B03EB
:10399000C01A5241C30A8B4201D3CB02C01A524112
:1039A000830A8B4201D38B02C01A5241430A8B42D5
:1039B00001D34B02C01A5241030A8B4201D30B02BE
:1039C000C01A5241CDD2C3098B4201D3CB01C01AD8
:1039D000524183098B4201D38B01C01A52414309E2
:1039E0008B4201D34B01C01A524103098B4201D3D0
:1039F0000B01C01A5241C3088B4201D3CB00C01A3D
:103A0000524183088B4201D38B00C01A52414308B4
:103A10008B4201D34B00C01A5241411A00D20146D9
:103A2000524110467047FFE701B50020FDF7C4FE84
:103A300002BDC0460029F7D076E77047496E697429
:103A40002074696D6572320D0000000074696D6547
:103A5000723220646F6E652E0D000000496E69742D
:103A60002074696D6572330D00000000300D000098
:103A700045787465726E616C20436F6D6D756E690B
:103A8000636174696F6E204D6F64650D0000000006
:103A9000494E495449414C495A494E470D0000008E
:103AA0007265616479000000456E7465722074650A
:103AB00078743A200D0000001B5B304B00000000C2
:103AC0003E25730D0A0000006572726F720D0000D2
:103AD000496E76616C696420436F6D6D616E640D33
:103AE000000000005B68683A6D6D3A73733A6D735D
:103AF0005D203D205B25753A25753A25753A25648C
:103B00005D0D0A0053657420686F7572733A200D5D
:103B10000000000025640000536574206D696E7517
:103B20007465733A200D00000D0A536574207365A7
:103B3000636F6E64733A200D000000004C43442014
:103B4000696E697469616C697A696E670D0000005D
:103B5000496E7465727275707420776974686F75D8
:103B600074204953522E202053797374656D20734D
:103B7000746F702E00000000486172642046617509
:103B80006C7420696E746572727570742E20205387
:103B9000797374656D2073746F702E0000000000DF
:103BA0000000000000000000000000000000000015
:103BB0000000000000000000000000000000000005
:103BC00000000000000000000000000000000000F5
:103BD00000000000000000000000000000000000E5
:103BE00000000000000000000000000000000000D5
:103BF0000000000000000000000000000C00002099
:103C0000686C4C00232D302B2000656667454647C5
:103C10000030313233343536373839414243444548
:103C200046003031323334353637383961626364B7
:103C300065660000523C0008553C0008583C0008EE
:103C4000412D46612D6638393031323334353637BF
:103C50005D002B2D003030007858004300504F534A
:103C60004958002E0000202020202020202020283D
:103C70002828282820202020202020202020202024
:103C8000202020202020881010101010101010105C
:103C9000101010101010040404040404040404049C
:103CA000101010101010104141414141410101011B
:103CB00001010101010101010101010101010101F4
:103CC0000110101010101042424242424202020201
:103CD00002020202020202020202020202020202C4
:103CE0000210101010200000000000000000000072
:103CF00000000000000000000000000000000000C4
:103D000000000000000000000000000000000000B3
:103D100000000000000000000000000000000000A3
:103D20000000000000000000000000000000000093
:103D30000000000000000000000000000000000083
:103D40000000000000000000000000000000000073
:103D50000000000000000000000000000000000063
:083D600000000000000000005B
:103D68001E020200E40100200C00002000000000F8
:103D7800BC3B0008DC3B00089C3B0008000000003E
:103D8800000000000000000000000000000000002B
:103D9800000000000000000000000000000000001B
:103DA800000000000000000000000000000000000B
:103DB80000000000000000000000000000000000FB
:103DC80000000000000000000000000043000000A8
:103DD80000000000000000000000000000000000DB
:103DE8000000000000000000000000004300000088
:103DF80000000000000000000000000000000000BB
:103E08000000000000000000000000004300000067
:103E1800000000000000000000000000000000009A
:103E28000000000000000000000000004300000047
:103E3800000000000000000000000000000000007A
:103E48000000000000000000000000004300000027
:103E5800000000000000000000000000000000005A
:103E68000000000000000000000000004300000007
:103E7800000000000000000000000000000000003A
:103E880000000000000000000000000043000000E7
:103E9800000000000000000000000000000000001A
:103EA80000000000000000000000000001390008C8
:103EB8000938000800000000653C0008633C000861
:103EC800093C0008093C0008093C0008093C0008B6
:103ED800093C0008093C0008093C0008093C0008A6
:103EE800093C0008FFFFFFFFFFFFFFFFFFFFFFFF89
:103EF800FFFF000001004153434949000000000052
:103F080000000000000000000000000000000000A9
:103F18000000000000004153434949000000000030
:103F28000000000000000000000000000000000089
:083F3800000000000000000081
:04000005080000C12E
:00000001FF
